:100000000C94A7000C9424020C945A020C949002B5
:100010000C94C4000C94C4000C94C4000C94C40050
:100020000C94C4000C94C4000C94C4000C941302EF
:100030000C94C4000C94C4000C94C4000C94C40030
:100040000C94C4000C94C4000C94C4000C94C40020
:100050000C94C40000407A10F35A00A0724E1809A4
:100060000010A5D4E80000E87648170000E40B541F
:10007000020000CA9A3B000000E1F50500008096EE
:100080009800000040420F000000A0860100000020
:10009000102700000000E8030000000064000000DA
:1000A00000000A00000000000100000000002C76A3
:1000B000D888DC674F0823DFC1DFAE59E1B1B796BE
:1000C000E5E3E453C63AE651997696E8E6C284261B
:1000D000EB898C9B62ED407C6FFCEFBC9C9F40F2F7
:1000E000BAA56FA5F490055A2AF75C936B6CF96773
:1000F0006DC11BFCE0E40D47FEF520E6B500D0ED38
:10010000902E0300943577050080841E080000209F
:100110004E0A000000C80C333333330F986E12833D
:100120001141EF8D2114893BE65516CFFEE6DB1811
:10013000D1844B381BF77C1D901DA4BBE4242032D6
:1001400084725E228100C9F124ECA1E53D271124CF
:100150001FBECFE5D8E0DEBFCDBF10E0A0E6B0E027
:10016000E2E0FDE002C005900D92A438B107D9F796
:1001700020E0A4E8B0E001C01D92A539B207E1F784
:100180000E94C6010C947F060C94000098B39F70E7
:10019000282F207F922B98BBC098C19A35E03A95C2
:1001A000F1F70000C198EFE1F3E03197F1F700C0FB
:1001B000000028B32F70F0E18F9FC0011124822B23
:1001C00088BBC19A35E03A95F1F70000C1988FE3FA
:1001D0009FE10197F1F700C00000089598B39F7068
:1001E000282F207F922B98BBC09AC19A35E03A9570
:1001F000F1F70000C198EFE1F3E03197F1F700C0AB
:10020000000028B32F70F0E18F9FC0011124822BD2
:1002100088BBC19A35E03A95F1F70000C1988FE3A9
:100220009FE10197F1F700C0000008958FEF87BBB1
:100230002FEF89EF90E0215080409040E1F700C01F
:10024000000082E00E94C60088E20E94C6008CE0A6
:100250000E94C60086E00E94C60081E00E94C6009F
:100260008FE39FE10197F1F700C000000895CF935D
:10027000DF93EC018881882331F021960E94EE0003
:1002800089918111FBCFDF91CF91089581E00E9488
:10029000C6008FE39FE10197F1F700C0000080E8FE
:1002A0000E94C600089580919400883148F082B77A
:1002B0008A3648F012BE1092940081E090E00895D2
:1002C00080E090E0089580E090E00895EF92FF9242
:1002D0000F931F93CF93DF93CDB7DEB76E970FB613
:1002E000F894DEBF0FBECDBF7A018E010F5F1F4FA6
:1002F00024E046E00E94F60380E690E00E94370189
:10030000E114F10429F48EE690E00E9437010CC05C
:10031000EA94EF2829F480E790E00E94370104C0B6
:1003200082E790E00E94370184E790E00E94370165
:1003300080EC0E94C600CE0101960E94370188E73A
:1003400090E00E9437018FEF93EC29E081509040BC
:100350002040E1F700C000000E9446016E960FB6F3
:10036000F894DEBF0FBECDBFDF91CF911F910F91EB
:10037000FF90EF90089583B7846083BF12BE89B762
:10038000816089BF78941092940008950E941601AC
:100390000E94BB0185B7826085BF85B7886085BF35
:1003A00084B784BF8BB780648BBF8BB780688BBFEB
:1003B0008BB780628BBF78940E9453010197E1F75D
:1003C00020E030E040E85FE36091900070919100A0
:1003D00080919200909193000E94C70260939000D8
:1003E00070939100809392009093930004E810E042
:1003F000C0E0D0E020E030E040EF50E4F801608160
:100400007181828193810E943303AE010E94660153
:10041000F80111921192119211928F012196C3301D
:10042000D10541F7C9CF1F920F920FB60F92112439
:100430008F93809194008F5F809394008F910F90A1
:100440000FBE0F901F9018951F920F920FB60F922C
:1004500011242F933F934F935F936F937F938F93C9
:100460009F93AF93BF93CF93DF93EF93FF93C4E832
:10047000D0E020E030E040E85FE3688179818A8164
:100480009B810E94C702688379838A839B83FF9143
:10049000EF91DF91CF91BF91AF919F918F917F911C
:1004A0006F915F914F913F912F910F900FBE0F90E1
:1004B0001F9018951F920F920FB60F9211242F9331
:1004C0003F934F935F936F937F938F939F93AF93DC
:1004D000BF93CF93DF93EF93FF93C4E8D0E020E086
:1004E00030E040E85FE36C817D818E819F810E94D6
:1004F000C7026C837D838E839F83FF91EF91DF9191
:10050000CF91BF91AF919F918F917F916F915F91AB
:100510004F913F912F910F900FBE0F901F90189504
:100520001F920F920FB60F9211242F933F934F9368
:100530005F936F937F938F939F93AF93BF93CF936B
:10054000DF93EF93FF93C4E8D0E020E030E040E891
:100550005FE3688579858A859B850E94C7026887E5
:1005600079878A879B87FF91EF91DF91CF91BF9128
:10057000AF919F918F917F916F915F914F913F913B
:100580002F910F900FBE0F901F9018955058BB27BA
:10059000AA270E94DE020C94BC030E94AE0338F02E
:1005A0000E94B50320F039F49F3F19F426F40C940F
:1005B000AB030EF4E095E7FB0C94A503E92F0E9432
:1005C000CD0358F3BA17620773078407950720F025
:1005D00079F4A6F50C94EF030EF4E0950B2EBA2FE8
:1005E000A02D0B01B90190010C01CA01A001112439
:1005F000FF27591B99F0593F50F4503E68F11A16E5
:10060000F040A22F232F342F4427585FF3CF469575
:1006100037952795A795F0405395C9F77EF41F1697
:10062000BA0B620B730B840BBAF09150A1F0FF0F61
:10063000BB1F661F771F881FC2F70EC0BA0F621F4D
:10064000731F841F48F4879577956795B795F7953D
:100650009E3F08F0B0CF9395880F08F09927EE0FD2
:100660009795879508950E9447030C94BC030E94B8
:10067000B50358F00E94AE0340F029F45F3F29F023
:100680000C94A50351110C94F0030C94AB030E943D
:10069000CD0368F39923B1F3552391F3951B550BC3
:1006A000BB27AA2762177307840738F09F5F5F4F45
:1006B000220F331F441FAA1FA9F335D00E2E3AF084
:1006C000E0E832D091505040E695001CCAF72BD09C
:1006D000FE2F29D0660F771F881FBB1F26173707ED
:1006E0004807AB07B0E809F0BB0B802DBF01FF271F
:1006F00093585F4F3AF09E3F510578F00C94A50354
:100700000C94F0035F3FE4F3983ED4F3869577951D
:100710006795B795F7959F5FC9F7880F911D9695D7
:10072000879597F90895E1E0660F771F881FBB1F33
:10073000621773078407BA0720F0621B730B840BE0
:10074000BA0BEE1F88F7E095089597F99F6780E848
:1007500070E060E008959FEF80EC089500240A9413
:100760001616170618060906089500240A9412168C
:100770001306140605060895092E0394000C11F4BF
:10078000882352F0BB0F40F4BF2B11F460FF04C06C
:100790006F5F7F4F8F4F9F4F089557FD9058440FC5
:1007A000551F59F05F3F71F04795880F97FB991FD0
:1007B00061F09F3F79F0879508951216130614068D
:1007C000551FF2CF4695F1DF08C01616170618061A
:1007D000991FF1CF86957105610508940895E894F5
:1007E000BB2766277727CB0197F90895EF920F93E0
:1007F0001F93CF93DF93E80147FD02C034E001C0AF
:1008000034E1042E000C550B57FF03C05195419560
:100810005109E32E022F242FAE010E941604CE01AF
:10082000DF91CF911F910F91EF900895A9E0B0E073
:10083000ECE1F4E00C944E066A01122FB02E2BE38B
:10084000201720F0FF24F394F00E02C02CE3F22EC8
:100850000F2D27E0AE014F5F5F4F0E947005BC0176
:100860004981842F8970813031F0E1FC06C0E0FEBF
:1008700006C090E205C09DE203C09BE201C090E08B
:100880005E2D507143FF3CC0911102C083E001C056
:1008900084E0811718F4212F281B01C020E051119A
:1008A0000BC0F601822F30E2882319F0319381507A
:1008B000FBCFC20ED11C20E0992329F0D6019C93D6
:1008C000F60131966F01C6010396E2FE0AC03EE4CE
:1008D000D6013C9341E411964C93119712963C93A8
:1008E00006C03EE6F601308341E641833283FC01D7
:1008F000322F40E2332309F442C041933150FACF02
:1009000042FF44C0911102C083E001C084E081171E
:1009100018F4212F281B01C020E051110BC0F60153
:10092000822F30E2882319F031938150FBCFC20E21
:10093000D11C20E0992329F0D6019C93F601319631
:100940006F01C6010396E2FE0BC039E4D6013C9369
:100950003EE411963C93119736E412963C9307C0FF
:1009600039E6F60130833EE6318336E63283FC0118
:10097000322F40E2332319F041933150FBCFFC0179
:10098000E20FF11D10828EEF9FEFA6C021E030E054
:10099000911102C020E030E0161617061CF4FB018E
:1009A000319602C0E1E0F0E02E0F3F1FBB2021F0A6
:1009B000EB2DF0E0319602C0E0E0F0E02E0F3F1F9B
:1009C000E12FF0E02E173F071CF4121B212F01C06E
:1009D00020E08E2D887159F4F601822F30E28823B1
:1009E00019F031938150FBCFC20ED11C20E0992326
:1009F00029F0D6019C93F60131966F0151110BC07D
:100A0000F601822F90E3882319F091938150FBCF58
:100A1000C20ED11C20E00F2D060F9A81342F3071A9
:100A200044FF03C0913309F40150101624F4093037
:100A300018F008E001C001E0AB0177FF02C040E020
:100A400050E0FB01E41BF50BA1E0B0E0AC0FBD1FD3
:100A5000EA0FFB1F8EE2A82E4B01801A91080B2D86
:100A600010E01195019511094F3FBFEF5B0721F48D
:100A7000D601AC9211966D01641775072CF084169F
:100A8000950614F4818101C080E3415051093196EB
:100A9000D60111967D014017510724F0D6018C93A1
:100AA0006701E2CF6417750739F4963320F4953364
:100AB00019F4311101C081E3F6018083F701822F1F
:100AC00090E2882319F091938150FBCFF701E20F58
:100AD000F11D108280E090E02996ECE00C946A060B
:100AE000283008F027E03327DA01990F311D87FD00
:100AF000916000966105710539F432602E5F3D9377
:100B000030E32A95E1F708959F3F30F08038710572
:100B1000610509F03C5F3C5F3D93913008F08068CF
:100B2000911DDF93CF931F930F93FF92EF92192F95
:100B3000987F9695E92F96959695E90FFF27E255B0
:100B4000FF4F99273327EE24FF24A701E7010590E3
:100B50000894079428F4360FE71EF81E491F511D0C
:100B6000660F771F881F991F0694A1F705900794B9
:100B700028F4E70EF81E491F561FC11D770F881F66
:100B8000991F661F0694A1F70590079428F4F80EA4
:100B9000491F561FC71FD11D880F991F661F771F3A
:100BA0000694A1F70590079420F4490F561FC71F1C
:100BB000D81F990F661F771F881F0694A9F7849185
:100BC0001095177041F0D695C79557954795F794AE
:100BD000E7941A95C1F7E4E5F0E068941590159153
:100BE00035916591959105907FE27395E118F10A31
:100BF000430B560BC90BD009C0F7E10CF11E431F84
:100C0000561FC91FD01D7EF4703311F48A95E6CFAC
:100C1000E894015030F0080F0AF40027021708F496
:100C2000202F2395022F7A3328F079E37D932A959C
:100C3000E9F710C07D932A9589F6069497956795F4
:100C4000379517951794E118F10A430B560BC90B0A
:100C5000D00998F023957E9173957A3308F070E36C
:100C60007C932013B8F77E9170617D9330F083956B
:100C700071E37D9370E32A95E1F71124EF90FF90E3
:100C80000F911F91CF91DF91992787FD909508953E
:100C90002F923F924F925F926F927F928F929F928C
:100CA000AF92BF92CF92DF92EF92FF920F931F937A
:100CB000CF93DF93CDB7DEB7CA1BDB0B0FB6F8942B
:100CC000DEBF0FBECDBF09942A88398848885F846B
:100CD0006E847D848C849B84AA84B984C884DF80DC
:100CE000EE80FD800C811B81AA81B981CE0FD11DC0
:100CF0000FB6F894DEBF0FBECDBFED010895F89496
:020D0000FFCF23
:100D0200466C6F772052617465206F662000310057
:100D120032003300203A2000206C697465722F4D36
:040D2200696E0000F6
:00000001FF
