:100000000C94AB000C94C8000C94C8000C94C8006D
:100010000C94C8000C94C8000C94C8000C94C80040
:100020000C94C8000C94C8000C94C8000C94C80030
:100030000C94C8000C94B1040C94C8000C94C80033
:100040000C94C8000C94C8000C94C8000C94C80010
:100050000C94C8006E616E00696E660000407A10F4
:10006000F35A00A0724E18090010A5D4E80000E869
:100070007648170000E40B54020000CA9A3B0000C7
:1000800000E1F505000080969800000040420F0056
:100090000000A08601000000102700000000E80317
:1000A000000000006400000000000A0000000000E2
:1000B0000100000000002C76D888DC674F0823DFA1
:1000C000C1DFAE59E1B1B796E5E3E453C63AE65174
:1000D000997696E8E6C28426EB898C9B62ED407C9B
:1000E0006FFCEFBC9C9F40F2BAA56FA5F490055A37
:1000F0002AF75C936B6CF9676DC11BFCE0E40D475C
:10010000FEF520E6B500D0ED902E0300943577057E
:100110000080841E080000204E0A000000C80C3336
:100120003333330F986E12831141EF8D2114893BC5
:10013000E65516CFFEE6DB18D1844B381BF77C1D45
:10014000901DA4BBE424203284725E228100C9F198
:1001500024ECA1E53D2711241FBECFE5D8E0DEBF8A
:10016000CDBF12E0A0E6B0E0E0EAFAE102C00590FF
:100170000D92A232B107D9F722E0A2E2B2E001C0AB
:100180001D92AB3CB207E1F70E94E8040C944E0DBF
:100190000C940000599A2AB128692AB920B526681A
:1001A00020BD0E94650620E030E040E051E40E945E
:1001B000F3069B01AC0160E074E284E79BE40E94DB
:1001C000BD0520E030E040E85FE30E9450050E945A
:1001D00060070E942F0669B970BD08958CB95D9BB8
:1001E000FECF0895CF93DF93EC018881882331F00F
:1001F00021960E94EE0089918111FBCFDF91CF9172
:1002000008952F923F924F925F926F927F928F92BA
:100210009F92AF92BF92CF92DF92EF92FF920F9395
:100220001F93CF93DF93CDB7DEB72C970FB6F8941B
:10023000DEBF0FBECDBF9E838D832DB73EB73C87FB
:100240002B87FC0101900020E9F731975F01A81A84
:10025000B90ABB24A5014150510958874F838DB776
:100260009EB78A199B090FB6F8949EBF0FBE8DBF2B
:10027000ADB7BEB711964D01809122029091230235
:10028000A0912402B0912502803F984DAF4FBF4FFF
:1002900061F4109222021092230210922402109212
:1002A000250282E08093CA029BC019821A821B82B7
:1002B0001C822F803884280C391C94012F5F3F4FFB
:1002C0003A8729878091CA02843011F41092CA02B9
:1002D000EAE2F2E001900020E9F73197CF018A527B
:1002E00092406C01E12CF12CC114D104E104F10421
:1002F00009F451C08FE99FE00197F1F700C00000B9
:1003000029813A814B815C812F5F3F4F4F4F5F4F77
:1003100029833A834B835C83EAE2F2E00190002078
:10032000E9F73197CF018A529240A0E0B0E0C816B9
:10033000D906EA06FB0679F50AE212E0412C512CB7
:1003400032014F81588569857A85C4010E944D0C20
:10035000D8018D918D01F1018083A5016D817E8190
:10036000C4010E945F0C892B61F41092220210924A
:100370002302109224021092250281E08093CA0287
:100380002FC0FFEF4F1A5F0A6F0A7F0A4C145D04FB
:100390006E047F04B1F68FE99FE00197F1F700C08A
:1003A000000029813A814B815C812F5F3F4F4F4F85
:1003B0005F4F29833A834B835C8380912202909123
:1003C0002302A0912402B0912502805F984DAF4F87
:1003D000BF4F281739074A075B0708F473CF59CF77
:1003E0004B855C850FB6F8945EBF0FBE4DBF2C9653
:1003F0000FB6F894DEBF0FBECDBFDF91CF911F9136
:100400000F91FF90EF90DF90CF90BF90AF909F90B3
:100410008F907F906F905F904F903F902F900895B6
:1004200080EAEAE2F2E0DF011D928A95E9F7109294
:100430002902109228021092270210922602089593
:10044000CF93DF93EC0184E08093CA02CE010E9437
:1004500001018091CA028823C9F3DF91CF910895E9
:100460000E94200281E09091CA02923009F480E05B
:1004700008950F931F93CF93DF938C01EB010E949C
:100480001002C8010E94F2008BEC90E00E94F20082
:10049000CE010E943002DF91CF911F910F910895FC
:1004A0000F931F93CF93DF93CDB7DEB764970FB64B
:1004B000F894DEBF0FBECDBF8E010F5F1F4F94E1DA
:1004C000F80111929A95E9F71F928F9387E690E0D1
:1004D0009F938F931F930F930E94CE0C1C8A60E60C
:1004E00070E0C8010E9439020F900F900F900F909A
:1004F0000F900F9064960FB6F894DEBF0FBECDBF7D
:10050000DF91CF911F910F9108950F931F93CF9378
:10051000DF93CDB7DEB764970FB6F894DEBF0FBE9A
:10052000CDBF8E010F5F1F4F94E1F80111929A9594
:10053000E9F71F928F9385E790E09F938F931F9326
:100540000F930E94CE0C1C8A60E670E0C8010E94E6
:1005500039020F900F900F900F900F900F906496AC
:100560000FB6F894DEBF0FBECDBFDF91CF911F91C4
:100570000F91089585E0AF9A8150E9F72FEF80E75A
:1005800092E0215080409040E1F700C00000AF9819
:100590002FEF80E792E0215080409040E1F700C0CB
:1005A000000062E870E085E890E00E943902811165
:1005B00006C062E870E08AE890E00E94390208957F
:1005C0000F931F93CF93DF93CDB7DEB764970FB62A
:1005D000F894DEBF0FBECDBF8E010F5F1F4F94E1B9
:1005E000F80111929A95E9F71F928F938BE990E0A9
:1005F0009F938F931F930F930E94CE0C1C8A60E6EB
:1006000070E0C8010E9439020F900F900F900F9078
:100610000F900F9064960FB6F894DEBF0FBECDBF5B
:10062000DF91CF911F910F9108950F931F93CF9357
:10063000DF93CDB7DEB7EC970FB6F894DEBF0FBEF1
:10064000CDBF8E010F5F1F4F2CE3F80111922A9549
:10065000E9F77F936F939F938F9388EA90E09F933E
:100660008F931F930F930E94CE0C1CAE6BEB70E028
:10067000C8010E9439020FB6F894DEBF0FBECDBF8D
:10068000811122C06EEC70E08AE292E00E94780C48
:10069000892BE1F467ED70E08AE292E00E94780C29
:1006A000892BB1F460EE70E08AE292E00E94780C4F
:1006B000892B81F469EE70E08AE292E00E94780C66
:1006C000892B51F485E009C080E007C081E005C0B6
:1006D00082E003C083E001C084E0EC960FB6F8949A
:1006E000DEBF0FBECDBFDF91CF911F910F91089557
:1006F00060E670E082EF90E00E9439026FEF70E0F8
:100700008AE292E00E94780C892BD1F468E071E0D3
:100710008AE292E00E94780C892BA1F461E171E0F9
:100720008AE292E00E94780C892B71F46AE171E010
:100730008AE292E00E94780C892B41F484E00895CB
:1007400080E0089581E0089582E0089583E00895AF
:10075000DF92EF92FF920F931F93CF93DF93CDB76A
:10076000DEB7EC970FB6F894DEBF0FBECDBFD82E24
:10077000162F072FF42EE52EFE0131968CE3DF01B4
:100780001D928A95E9F763E271E08CE291E00E94A4
:1007900039028823A1F0EF92FF920F931F9387E312
:1007A00091E09F938F93CE0101969F938F930E9428
:1007B000CE0C0FB6F894DEBF0FBECDBF15C0EF92C2
:1007C000FF920F931F931F92DF9281E591E09F9319
:1007D0008F93CE0101969F938F930E94CE0C0FB6FC
:1007E000F894DEBF0FBECDBF60E771E0CE01019689
:1007F0000E943902811106C08091CA02823021F024
:1008000085E003C081E001C082E0EC960FB6F89469
:10081000DEBF0FBECDBFDF91CF911F910F91FF9033
:10082000EF90DF900895EF92FF920F931F93CF9375
:10083000DF93CDB7DEB764970FB6F894DEBF0FBE77
:10084000CDBF8C01CE0101967C0184E1F7011192AC
:100850008A95E9F7F80101900020E9F7CF01801BA4
:10086000910B01969F938F938AE791E09F938F93CB
:10087000FF92EF920E94CE0C1C8A68E871E0C701DB
:100880000E94390260E971E0C8010E9439020F90AC
:100890000F900F900F900F900F90811106C08091D4
:1008A000CA02823021F085E003C081E001C082E00D
:1008B00064960FB6F894DEBF0FBECDBFDF91CF9127
:1008C0001F910F91FF90EF900895809128029091D1
:1008D00029022091260230912702821B930B089552
:1008E00020912602309127028091280290912902BE
:1008F0002817390784F480912602909127029C01E1
:100900002F5F3F4F3093270220932602FC01E65DC4
:10091000FD4F808108950E94100280E008950F939A
:100920001F93CF93DF932FEF31EE44E021503040FF
:100930004040E1F700C00000C82FD92F00E010E0D0
:1009400005C00F5F1F4F0E94700489930E946504C9
:1009500018161906B4F3C801DF91CF911F910F91BA
:1009600008951F920F920FB60F9211242F938F9319
:100970009F93EF93FF932FB7F894E0912802F091A3
:1009800029028CB1E65DFD4F808380912802909111
:1009900029020196909329028093280280912802CF
:1009A00090912902803A910541F410922902109207
:1009B000280210922702109226022FBFFF91EF917A
:1009C0009F918F912F910F900FBE0F901F901895B0
:1009D000CF93DF93CDB7DEB7C659D1090FB6F894E0
:1009E000DEBF0FBECDBF60E875E280E090E00E9400
:1009F000CA0078940E94BA028823E1F383E00E943F
:100A0000E00280E00E94850280E00E9450020E9485
:100A10007803833031F46CE971E085EA91E00E945B
:100A2000150348EB51E06CEB71E080E00E94A803F5
:100A30000F2EF6E9FF2EF02D8E010F5F1F4F0E9443
:100A40007803833039F46CE971E085EA91E00E9423
:100A5000150309C0823039F448EB51E06CEB71E0CA
:100A600080E00E94A803F8012F2D11922A95E9F742
:100A700084E4EDEDF1E0D80101900D928A95E1F763
:100A8000C8010E941304C8010E948F048FEF9BE4E9
:100A9000EDE181509040E040E1F700C00000CFCF91
:100AA0005058BB27AA270E9468050C94B9060E94DB
:100AB000AB0638F00E94B20620F039F49F3F19F4DB
:100AC00026F40C94A8060EF4E095E7FB0C94A2061D
:100AD000E92F0E94CA0658F3BA1762077307840702
:100AE000950720F079F4A6F50C94EC060EF4E09549
:100AF0000B2EBA2FA02D0B01B90190010C01CA01D8
:100B0000A0011124FF27591B99F0593F50F4503E82
:100B100068F11A16F040A22F232F342F4427585F74
:100B2000F3CF469537952795A795F0405395C9F78C
:100B30007EF41F16BA0B620B730B840BBAF0915044
:100B4000A1F0FF0FBB1F661F771F881FC2F70EC0E3
:100B5000BA0F621F731F841F48F4879577956795B6
:100B6000B795F7959E3F08F0B0CF9395880F08F0A2
:100B70009927EE0F9795879508950E94D1050C94BB
:100B8000B9060E94B20658F00E94AB0640F029F464
:100B90005F3F29F00C94A20651110C94ED060C94C1
:100BA000A8060E94CA0668F39923B1F3552391F36E
:100BB000951B550BBB27AA2762177307840738F0CC
:100BC0009F5F5F4F220F331F441FAA1FA9F335D029
:100BD0000E2E3AF0E0E832D091505040E695001CDD
:100BE000CAF72BD0FE2F29D0660F771F881FBB1F97
:100BF000261737074807AB07B0E809F0BB0B802D75
:100C0000BF01FF2793585F4F3AF09E3F510578F0A0
:100C10000C94A2060C94ED065F3FE4F3983ED4F3E7
:100C2000869577956795B795F7959F5FC9F7880F74
:100C3000911D9695879597F90895E1E0660F771FC6
:100C4000881FBB1F621773078407BA0720F0621B57
:100C5000730B840BBA0BEE1F88F7E09508950E9482
:100C600036066894B1110C94ED0608950E94D206E0
:100C700088F09F5798F0B92F9927B751B0F0E1F05D
:100C8000660F771F881F991F1AF0BA95C9F714C00D
:100C9000B13091F00E94EC06B1E008950C94EC069E
:100CA000672F782F8827B85F39F0B93FCCF3869546
:100CB00077956795B395D9F73EF4909580957095A3
:100CC00061957F4F8F4F9F4F0895E89409C097FB20
:100CD0003EF490958095709561957F4F8F4F9F4F13
:100CE0009923A9F0F92F96E9BB279395F695879557
:100CF00077956795B795F111F8CFFAF4BB0F11F41A
:100D000060FF1BC06F5F7F4F8F4F9F4F16C08823C0
:100D100011F096E911C0772321F09EE8872F762FF6
:100D200005C0662371F096E8862F70E060E02AF037
:100D30009A95660F771F881FDAF7880F9695879523
:100D400097F9089597F99F6780E870E060E008954B
:100D50009FEF80EC089500240A94161617061806D3
:100D60000906089500240A941216130614060506AF
:100D70000895092E0394000C11F4882352F0BB0F40
:100D800040F4BF2B11F460FF04C06F5F7F4F8F4FA3
:100D90009F4F089557FD9058440F551F59F05F3FDE
:100DA00071F04795880F97FB991F61F09F3F79F08D
:100DB00087950895121613061406551FF2CF46950F
:100DC000F1DF08C0161617061806991FF1CF869591
:100DD0007105610508940895E894BB276627772775
:100DE000CB0197F908950E9406070C94B9060E945A
:100DF000AB0638F00E94B20620F0952311F00C9457
:100E0000A2060C94A80611240C94ED060E94CA06B2
:100E100070F3959FC1F3950F50E0551F629FF0014D
:100E2000729FBB27F00DB11D639FAA27F00DB11D66
:100E3000AA1F649F6627B00DA11D661F829F2227EF
:100E4000B00DA11D621F739FB00DA11D621F839F76
:100E5000A00D611D221F749F3327A00D611D231F4C
:100E6000849F600D211D822F762F6A2F11249F579A
:100E700050409AF0F1F088234AF0EE0FFF1FBB1F9D
:100E8000661F771F881F91505040A9F79E3F51055C
:100E900080F00C94A2060C94ED065F3FE4F3983EBC
:100EA000D4F3869577956795B795F795E7959F5F06
:100EB000C1F7FE2B880F911D9695879597F9089598
:100EC0000E94D206E8F09E37E8F09639B8F49E38D2
:100ED00048F4672F782F8827985FF9CF8695779504
:100EE000679593959539D0F3B62FB1706B0F711D3F
:100EF000811D20F487957795679593950C948407C9
:100F00000C949F070C94ED06882371F4772321F04D
:100F10009850872B762F07C0662311F499270DC0B0
:100F20009051862B70E060E02AF09A95660F771F4B
:100F3000881FDAF7880F9695879597F908959F3F50
:100F400031F0915020F4879577956795B795880F84
:100F5000911D9695879597F90895A0E1B0E0E3EB90
:100F6000F7E00C942A0B7C011B016A01FC0117823B
:100F70001682838181FF44C39E012F5F3F4F390159
:100F8000F7019381F10193FD859193FF81911F01F9
:100F9000882309F431C3853239F493FD859193FF99
:100FA00081911F01853239F4B70190E00E94920CC3
:100FB00056016501E5CF10E0512C912CFFE1F915A8
:100FC000D8F08B3279F038F4803279F08332A1F4A2
:100FD000F92DF0612EC08D3261F0803369F4292D36
:100FE00021602DC0392D3260932E892D8460982E7A
:100FF0002AC0E92DE86015C097FC2DC020ED280F10
:101000002A3088F496FE06C03AE0139F200D112482
:10101000122F19C08AE0589E200D1124522EE92D5E
:10102000E0629E2E10C08E3231F496FCE5C2F92D9E
:10103000F0649F2E08C08C3621F4292D2068922E52
:1010400002C0883641F4F10193FD859193FF8191AF
:101050001F018111B3CF9BEB980F933020F4992D92
:101060009061805E07C09BE9980F933008F066C1DD
:10107000992D9F7E96FF16E09F73992E853619F461
:101080009064992E08C0863621F4392F3068932E4B
:1010900002C01111115097FE07C01C3350F44424B4
:1010A0004394410E27E00BC0183038F027E017E0DA
:1010B00005C027E09CE3492E02C0212F412C560198
:1010C00084E0A80EB11CF601608171818281938158
:1010D000042DA3010E94610B6C01F981FC87F0FFD4
:1010E00002C0F3FF06C091FC06C092FE06C000E2FB
:1010F00005C00DE203C00BE201C000E08C858C70DE
:1011000019F001115AC29BC297FE10C04C0CFC850D
:10111000F4FF04C08A81813309F44A94141474F5ED
:1011200028E0241578F588E0482E2CC096FC2AC0CB
:10113000812F90E08C159D059CF03CEFC3163FEF8E
:10114000D30674F0892D8068982E0AC0E2E0F0E0A2
:10115000EC0FFD1FE10FF11D8081803319F4115058
:101160001111F4CF97FE0EC044244394410E812FF9
:1011700090E0C816D9062CF41C1904C044244394EA
:1011800001C010E097FE06C01C141D0434F4C60113
:10119000019605C085E090E002C081E090E0011179
:1011A0000196112331F0212F30E02F5F3F4F820F46
:1011B000931F252D30E08217930714F4581A01C0AD
:1011C000512C892D897049F4552039F0B70180E2FE
:1011D00090E00E94920C5A94F7CF002329F0B701B7
:1011E000802F90E00E94920C93FC09C0552039F0AA
:1011F000B70180E390E00E94920C5A94F7CF97FEDB
:101200004CC04601D7FE02C0812C912CC601881922
:101210009909F301E80FF91FFE87ED87960124195C
:101220003109388B2F87012F10E011950195110995
:101230003FEF8316930629F4B7018EE290E00E94F7
:10124000920CC814D9044CF08F859889881599059B
:1012500024F4ED85FE85818101C080E3F1E08F1AE1
:1012600091082D853E852F5F3F4F3E872D87801645
:1012700091062CF0B70190E00E94920CD9CFC814CF
:10128000D90441F49A81963320F4953319F43C85BE
:1012900034FF81E3B70190E04EC08A81813319F0B9
:1012A0009C859F7E9C87B70190E00E94920C111153
:1012B00005C094FC18C085E690E017C0B7018EE227
:1012C00090E00E94920C1E5F82E001E0080FF301A3
:1012D000E80FF11D8081B70190E00E94920C802FF1
:1012E0000113F3CFE6CF85E490E0B7010E94920CA2
:1012F000D7FC06C0C114D10441F4EC85E4FF05C05D
:10130000D194C194D1088DE201C08BE2B70190E085
:101310000E94920C80E32AE0C216D1042CF08F5F69
:10132000FAE0CF1AD108F7CFB70190E00E94920CF3
:10133000B701C601C0960E94920C54C1833631F0A9
:10134000833779F0833509F056C020C0560132E06A
:10135000A30EB11CF6018081898301E010E06301D6
:1013600012C05601F2E0AF0EB11CF601C080D18070
:1013700096FE03C0612F70E002C06FEF7FEFC601E1
:101380000E946D0C8C01F92DFF7714C0560122E0EC
:10139000A20EB11CF601C080D18096FE03C0612F61
:1013A00070E002C06FEF7FEFC6010E94390C8C0124
:1013B000F92DF0689F2EF3FD1AC0852D90E00817D7
:1013C0001907A8F4B70180E290E00E94920C5A94A9
:1013D000F4CFF60197FC859197FE81916F01B701DB
:1013E00090E00E94920C51105A940150110901157D
:1013F000110579F7F7C0843611F0893661F5560189
:1014000097FE09C024E0A20EB11CF6016081718133
:10141000828193810AC0F2E0AF0EB11CF6016081B7
:101420007181072E000C880B990BF92DFF769F2EEA
:1014300097FF09C090958095709561957F4F8F4F6C
:101440009F4FF0689F2E2AE030E0A3010E94F00C2D
:10145000C82EC6183FC0092D853721F40F7E2AE01B
:1014600030E01DC0097F8F3691F018F4883559F0AF
:10147000C3C0803719F0883711F0BEC0006104FF87
:1014800009C0046007C094FE08C0066006C028E0DA
:1014900030E005C020E130E002C020E132E056013A
:1014A00007FF09C084E0A80EB11CF60160817181BC
:1014B0008281938108C0F2E0AF0EB11CF601608119
:1014C000718180E090E0A3010E94F00CC82EC61844
:1014D0000F77902E96FE0BC0092D0E7FC11650F48B
:1014E00094FE0AC092FC08C0092D0E7E05C0DC2CBB
:1014F000092D03C0DC2C01C0D12E04FF0DC0FE015C
:10150000EC0DF11D8081803311F4097E09C002FFCA
:1015100006C0D394D39404C0802F867809F0D39466
:1015200003FD11C000FF06C01C2DD51480F4150D5D
:101530001D190DC0D51458F4B70180E290E00E9447
:10154000920CD394F7CFD51410F45D1801C0512C30
:1015500004FF10C0B70180E390E00E94920C02FFEC
:1015600017C001FD03C088E790E002C088E590E065
:10157000B7010CC0802F867859F001FF02C08BE2C2
:1015800001C080E207FD8DE2B70190E00E94920C5D
:10159000C11638F4B70180E390E00E94920C11501C
:1015A000F7CFCA94F301EC0DF11D8081B70190E0F3
:1015B0000E94920CC110F5CF15C0F4E0F51560F54E
:1015C00084E0581A93FE1FC0011127C02C8523FF09
:1015D0002AC004E510E0392D3071932EF801849172
:1015E000811124C0552009F4E4CCB70180E290E0D9
:1015F0000E94920C5A94F6CFF7018681978126C0FB
:101600008FEF9FEF23C0B70180E290E00E94920C21
:101610005A945110F8CFD8CF512CB701802F90E0B9
:101620000E94920CD3CF08E510E0D5CF91108052E4
:10163000B70190E00E94920C0F5F1F4FCFCF23E0C5
:10164000251510F483E0BDCF512CC0CF6096E2E1A8
:101650000C94460B2F923F924F925F926F927F9223
:101660008F929F92AF92BF92CF92DF92EF92FF92B2
:101670000F931F93CF93DF93CDB7DEB7CA1BDB0B5E
:101680000FB6F894DEBF0FBECDBF09942A88398803
:1016900048885F846E847D848C849B84AA84B9840A
:1016A000C884DF80EE80FD800C811B81AA81B98116
:1016B000CE0FD11D0FB6F894DEBF0FBECDBFED012A
:1016C0000895283008F027E03327DA01990F311DFB
:1016D00087FD916000966105710539F432602E5FD7
:1016E0003D9330E32A95E1F708959F3F30F080382D
:1016F0007105610509F03C5F3C5F3D93913008F056
:101700008068911DDF93CF931F930F93FF92EF9209
:10171000192F987F9695E92F96959695E90FFF27B3
:10172000EA54FF4F99273327EE24FF24A701E7014E
:1017300005900894079428F4360FE71EF81E491FF9
:10174000511D660F771F881F991F0694A1F70590FA
:10175000079428F4E70EF81E491F561FC11D770F86
:10176000881F991F661F0694A1F70590079428F417
:10177000F80E491F561FC71FD11D880F991F661FDE
:10178000771F0694A1F70590079420F4490F561F80
:10179000C71FD81F990F661F771F881F0694A9F7C8
:1017A00084911095177041F0D695C7955795479538
:1017B000F794E7941A95C1F7ECE5F0E0689415907A
:1017C000159135916591959105907FE27395E1189A
:1017D000F10A430B560BC90BD009C0F7E10CF11EFF
:1017E000431F561FC91FD01D7EF4703311F48A9514
:1017F000E6CFE894015030F0080F0AF400270217F2
:1018000008F4202F2395022F7A3328F079E37D9373
:101810002A95E9F710C07D932A9589F60694979545
:101820006795379517951794E118F10A430B560BF6
:10183000C90BD00998F023957E9173957A3308F0FF
:1018400070E37C932013B8F77E9170617D9330F044
:10185000839571E37D9370E32A95E1F71124EF906E
:10186000FF900F911F91CF91DF91992787FD909560
:101870000895FC010590615070400110D8F78095E3
:1018800090958E0F9F1F0895FB01DC0102C001900F
:101890000D9241505040D8F708956817790768F4C1
:1018A000FB01DC01E40FF51FA40FB51F02C002907D
:1018B0000E9241505040D8F708950C94440CFB010F
:1018C000DC014150504030F08D910190801919F4A5
:1018D0000020B9F7881B990B0895FC0161507040F6
:1018E00001900110D8F7809590958E0F9F1F089555
:1018F000FB0151915523A9F0BF01DC014D91451722
:101900004111E1F759F4CD010190002049F04D91CA
:1019100040154111C9F3FB014111EFCF81E090E087
:10192000019708950F931F93CF93DF93FB012381BA
:1019300021FD03C08FEF9FEF2CC022FF16C0468110
:101940005781248135814217530744F4A081B18126
:101950009D012F5F3F4F318320838C9326813781F8
:101960002F5F3F4F3783268314C08B01EC01FB01AF
:101970000084F185E02D0995892BE1F6D8011696B2
:101980008D919C911797019617969C938E9316971D
:10199000CE01DF91CF911F910F910895AEE0B0E09D
:1019A000E4EDFCE00C94380B0D891E8986E08C83F5
:1019B0001A8309838FEF9FE79E838D83AE01475E75
:1019C0005F4F6F89788DCE0101960E94AD07EF8140
:1019D000F885E00FF11F10822E96E4E00C94540B72
:1019E000FA01AA27283051F1203181F1E8946F9350
:1019F0006E7F6E5F7F4F8F4F9F4FAF4FB1E03ED0F6
:101A0000B4E03CD0670F781F891F9A1FA11D680F93
:101A1000791F8A1F911DA11D6A0F711D811D911DC6
:101A2000A11D20D009F468943F912AE0269F11243B
:101A30003019305D3193DEF6CF010895462F47709F
:101A4000405D4193B3E00FD0C9F7F6CF462F4F70FA
:101A5000405D4A3318F0495D31FD4052419302D058
:101A6000A9F7EACFB4E0A6959795879577956795FE
:101A7000BA95C9F700976105710508959B01AC01FE
:101A80000A2E06945795479537952795BA95C9F725
:101A9000620F731F841F951FA01D0895F894FFCF38
:101AA0000D0A4F4B0D0A0041542B4349504D4F44F2
:101AB000453D25640041542B4349504D55583D2523
:101AC00064004F4B00415445300041540041542BB9
:101AD000434950434C4F53453D310041542B4357EC
:101AE0004D4F44453D25640041542B43574A4150D6
:101AF0003D222573222C22257322000D0A574946C8
:101B00004920434F4E4E45435445440D0A002B4354
:101B1000574A41503A31002B43574A41503A32001C
:101B20002B43574A41503A33002B43574A41503ACE
:101B3000340041542B43495053544154555300539E
:101B400054415455533A32005354415455533A3347
:101B5000005354415455533A34005354415455534F
:101B60003A35004349504D55583A300041542B43C3
:101B700049504D55583F0041542B4349505354410F
:101B800052543D22544350222C222573222C25737B
:101B90000041542B43495053544152543D22256433
:101BA000222C22544350222C222573222C257300F0
:101BB000434F4E4E4543540D0A0041542B43495068
:101BC00053454E443D2564000D0A4F4B0D0A3E001F
:101BD0000D0A53454E44204F4B0D0A00706173733C
:101BE000776F7264004268616E756B61205063208C
:101BF0004E6574776F726B00343433006A756963B5
:101C0000652D62756464792D64346664342E66696A
:101C1000726562617365696F2E636F6D00504F531B
:101C2000542068747470733A2F2F6A756963652D38
:101C300062756464792D64346664342E66697265F5
:101C400062617365696F2E636F6D2F4F7264657289
:101C5000732F6C6173744F726465722E6A736F6E4A
:021C6000000082
:00000001FF
