:100000000C942A000C9434000C9434000C943400AA
:100010000C9434000C9434000C9434000C94340090
:100020000C9434000C9434000C9434000C94340080
:100030000C9434000C9434000C9434000C94340070
:100040000C9434000C9434000C9434000C94340060
:100050000C94340011241FBECFE5D8E0DEBFCDBF25
:100060000E9436000C9474000C9400008D9A1DBC04
:100070001CBC83EC99E097BD86BD82E88FBD8BE107
:100080008EBD21E430E03BBD2ABD4FEF5DE369E466
:10009000415050406040E1F700C000008FEA90E01E
:1000A0009BBD8ABD4FEF5EE964E241505040604025
:1000B000E1F700C000003BBD2ABD2FEF3DE349E45E
:1000C000215030404040E1F700C000009BBD8ABD98
:1000D0005FEF6EE984E2515060408040E1F700C07C
:0C00E000000080E090E00895F894FFCF4D
:00000001FF
