:100000000C942A000C9434000C9434000C943400AA
:100010000C9434000C9434000C9434000C94340090
:100020000C9434000C9434000C9434000C94340080
:100030000C9434000C9434000C9434000C94340070
:100040000C9434000C9434000C9434000C94340060
:100050000C94340011241FBECFE5D8E0DEBFCDBF25
:100060000E9436000C948C000C9400008D9A1DBCEC
:100070001CBC83EC99E097BD86BD82E88FBD8BE107
:100080008EBD41E450E05BBD4ABD2FEF3EE964E226
:10009000215030406040E1F700C000002FEA30E01E
:1000A0003BBD2ABD7FEF8DE399E4715080409040C5
:1000B000E1F700C000008CE291E09BBD8ABDEFEF4C
:1000C00067EA71E6E15060407040E1F700C000006F
:1000D0005BBD4ABDEFEF4EE954E2E1504040504075
:1000E000E1F700C000003BBD2ABD6FEF7DE3E9E40E
:1000F00061507040E040E1F700C000009BBD8ABD48
:100100002FEF37EA41E6215030404040E1F700C090
:0C011000000080E090E00895F894FFCF1C
:00000001FF
