S012000046696E616C20436F64652E737265638D
S11300000C94A7000C9485010C94BB010C94F10191
S11300100C94C4000C94C4000C94C4000C94C4004C
S11300200C94C4000C94C4000C94C4000C9474018B
S11300300C94C4000C94C4000C94C4000C94C4002C
S11300400C94C4000C94C4000C94C4000C94C4001C
S11300500C94C40000407A10F35A00A0724E1809A0
S11300600010A5D4E80000E87648170000E40B541B
S1130070020000CA9A3B000000E1F50500008096EA
S11300809800000040420F000000A086010000001C
S1130090102700000000E8030000000064000000D6
S11300A000000A00000000000100000000002C769F
S11300B0D888DC674F0823DFC1DFAE59E1B1B796BA
S11300C0E5E3E453C63AE651997696E8E6C2842617
S11300D0EB898C9B62ED407C6FFCEFBC9C9F40F2F3
S11300E0BAA56FA5F490055A2AF75C936B6CF9676F
S11300F06DC11BFCE0E40D47FEF520E6B500D0ED34
S1130100902E0300943577050080841E080000209B
S11301104E0A000000C80C333333330F986E128339
S11301201141EF8D2114893BE65516CFFEE6DB180D
S1130130D1844B381BF77C1D901DA4BBE4242032D2
S113014084725E228100C9F124ECA1E53D271124CB
S11301501FBECFE5D8E0DEBFCDBF11E0A0E6B0E022
S1130160EEEBF9E102C005900D92A637B107D9F77D
S113017021E0A6E7B1E001C01D92A738B207E1F77C
S11301800E943A020C94DD0C0C94000098B39F700A
S1130190282F207F922B98BBC098C19A35E03A95BE
S11301A0F1F70000C198EFE1F3E03197F1F700C0F7
S11301B0000028B32F70F0E18F9FC0011124822B1F
S11301C088BBC19A35E03A95F1F70000C1988FE3F6
S11301D09FE10197F1F700C00000089598B39F7064
S11301E0282F207F922B98BBC09AC19A35E03A956C
S11301F0F1F70000C198EFE1F3E03197F1F700C0A7
S1130200000028B32F70F0E18F9FC0011124822BCE
S113021088BBC19A35E03A95F1F70000C1988FE3A5
S11302209FE10197F1F700C0000008952FEF89EFD7
S113023090E0215080409040E1F700C0000082E04F
S11302400E94C60088E20E94C6008CE00E94C6009C
S113025086E00E94C60081E00E94C6008FE39FE111
S11302600197F1F700C000000895CF93DF93EC01EC
S11302708881882331F021960E94EE0089918111B2
S1130280FBCFDF91CF91089581E00E94C6008FE3F8
S11302909FE10197F1F700C0000080E80E94C600CA
S11302A0089587E886B980E487B9089597B18F7077
S11302B0982B97B9369A349BFECF85E38A95F1F74C
S11302C0000024B185B190E0982F8827820F911DFA
S11302D0089583B7846083BF12BE89B7816089BFE4
S11302E078941092860108951F920F920FB60F9280
S11302F011248F93809186018F5F809386018F9163
S11303000F900FBE0F901F9018951F920F920FB66B
S11303100F9211242F933F934F935F936F937F9387
S11303208F939F93AF93BF93CF93DF93EF93FF93F9
S1130330C6E7D1E020E030E040E85FE368817981FE
S11303408A819B810E942508688379838A839B83A1
S1130350FF91EF91DF91CF91BF91AF919F918F91D9
S11303607F916F915F914F913F912F910F900FBEAD
S11303700F901F9018951F920F920FB60F92112491
S11303802F933F934F935F936F937F938F939F9399
S1130390AF93BF93CF93DF93EF93FF93C6E7D1E07F
S11303A020E030E040E85FE36C817D818E819F81B5
S11303B00E9425086C837D838E839F83FF91EF9138
S11303C0DF91CF91BF91AF919F918F917F916F9169
S11303D05F914F913F912F910F900FBE0F901F90FF
S11303E018951F920F920FB60F9211242F933F93DB
S11303F04F935F936F937F938F939F93AF93BF9329
S1130400CF93DF93EF93FF93C6E7D1E020E030E092
S113041040E85FE3688579858A859B850E94250885
S1130420688779878A879B87FF91EF91DF91CF91C6
S1130430BF91AF919F918F917F916F915F914F91F8
S11304403F912F910F900FBE0F901F9018958091A0
S11304508601883148F082B78A3648F012BE10927D
S1130460860181E090E0089580E090E0089580E0C6
S113047090E00895CF93DF93CDB7DEB7E2970FB640
S1130480F894DEBF0FBECDBF1DBC1CBC83EC99E04D
S113049097BD86BD82E88FBD8BE18EBD4E0129E2FA
S11304A0820E911C5E0187E2A80EB11C1E0195E22A
S11304B0290E311CA0E7A4BB80E281BB1ABA83EFEA
S11304C087BB8FE085BB979A10B30E94690185B7FB
S11304D0826085BF85B7886085BF84B784BF8BB7CA
S11304E080648BBF8BB780688BBF8BB780628BBFF8
S11304F07894112374F10E94160180E690E00E9422
S1130500350180EC0E94C6008BE690E00E94350124
S1130510BFEFE1EEF4E0B150E040F040E1F700C09D
S113052000000E94440187E790E00E94350180ECBE
S11305300E94C60085E890E00E9435012FEF81EE0D
S113054094E0215080409040E1F700C000000E94F8
S1130550440193B313B3127083B38470E82E83B34E
S11305608870F82E90FD13C080E990E00E94350158
S1130570AFEFB1EEE4E0A150B040E040E1F700C0DD
S113058000000E944401CC24C394D12C02C0C12C8D
S1130590D12C111116C086E990E00E943501FFEFBD
S11305A021EE84E0F15020408040E1F700C00000DB
S11305B00E94440186010F5F1F4F66246394712CCF
S11305C003C08601612C712CE11015C08BE990E009
S11305D00E9435019FEFA1EEB4E09150A040B040DD
S11305E0E1F700C000000E9444010F5F1F4F442444
S11305F04394512C02C0412C512CF110C1C48CE8FD
S113060090E00E943501EFEFF1EE24E0E150F0407C
S11306102040E1F700C000000E94440184EF91E013
S1130620B8010E942C0A072E000C880B990B0E941B
S11306300A0969A77AA78BA79CA70E94510181E0A8
S1130640C816D10409F0B3C491E099AB1AAA02C048
S113065019AA1AAA8E010B5E1F4F780180E00E942E
S11306605601D7018D939D937D01BFEFE6E7F1E03D
S1130670B150E040F040E1F700C00000E814F90494
S113068069F740E050E04F5F5F4F4A3051050CF08E
S1130690D2C4F801B801D8018D919C912281338193
S11306A0281739072CF4DB012D933C939383828321
S11306B03296EA15FB0579F70E5F1F4F4930510555
S11306C011F7FE01799640E050E0BA0181919191D1
S11306D0092E000CAA0BBB0B480F591F6A1F7B1F66
S11306E0E215F30599F7CB01BA010E94080920E04D
S11306F030E040EA50E40E94BF0920E030E040E8E6
S11307005AE30E94BF0920E030E040EC50E40E942C
S1130710960826E636E646EB50EC0E94BF0922E531
S113072038EB4AEA51E40E9425086DA77EA78FA7FB
S113073098AB26E636E646E550E40E94BA09181658
S11307407CF520E030E040E850E46DA57EA58FA55F
S113075098A90E94910888231CF582EA90E00E94DF
S1130760350180EC0E94C6008E010F5F1F4F25E00B
S113077048E06DA57EA58FA598A90E94540AC801DA
S11307800E943501BFEFE1EEF4E0B150E040F040EB
S1130790E1F700C000000E94440101E010E00CC435
S11307A082EA90E00E94350180EC0E94C6008DE64A
S11307B091E00E9435012FEF81EE94E021508040BA
S11307C09040E1F700C000000E94440100E010E006
S11307D0F3C3A1E06A16710409F0F4C319AA1AAAB2
S11307E08E010B5E1F4F780181E00E945601F701D4
S11307F0819391937F01FFEF26E781E0F150204040
S11308008040E1F700C00000E814F90469F740E013
S113081050E04F5F5F4F4A3051050CF00FC4F801B0
S1130820B801D8018D919C91228133812817390711
S11308302CF4DB012D933C93938382833296EA1547
S1130840FB0579F70E5F1F4F4930510511F7FE0183
S1130850799640E050E0BA0181919191092E000C03
S1130860AA0BBB0B480F591F6A1F7B1F2E163F068E
S113087099F7CB01BA010E94080920E030E040EA70
S113088050E40E94BF0920E030E040E85AE30E94AF
S1130890BF0920E030E040EC50E40E94960826E6D0
S11308A036E646EB50EC0E94BF0922E538EB4AEAF3
S11308B051E40E9425086DA77EA78FA798AB20E07E
S11308C030E040E050E40E94BA0918167CF526E6B0
S11308D036E646E150E46DA57EA58FA598A90E9451
S11308E0910888231CF58FEA90E00E94350180EC82
S11308F00E94C6008E010F5F1F4F25E048E06DA5E2
S11309007EA58FA598A90E94540AC8010E943501AA
S1130910BFEFE1EEF4E0B150E040F040E1F700C099
S113092000000E94440101E010E018C08FEA90E04A
S11309300E94350180EC0E94C6008DE691E00E9481
S113094035012FEF81EE94E0215080409040E1F793
S113095000C000000E94440100E010E0A1E04A163B
S1130960510409F0C1C002C019AA1AAA8E010B5E73
S11309701F4F780182E00E945601F7018193919301
S11309807F01FFEF26E781E0F15020408040E1F74E
S113099000C00000E814F90469F740E050E04F5F3C
S11309A05F4F4A3051050CF04CC3F801B801D8012F
S11309B08D919C9122813381281739072CF4DB0116
S11309C02D933C93938382833296EA15FB0579F742
S11309D00E5F1F4F4930510511F7FE01799640E033
S11309E050E0BA0181919191092E000CAA0BBB0B26
S11309F0480F591F6A1F7B1FE215F30599F7CB01B6
S1130A00BA010E94080920E030E040EA50E40E9464
S1130A10BF0920E030E040E85AE30E94BF0920E02B
S1130A2030E040EC50E40E94960826E636E646EBB9
S1130A3050EC0E94BF0922E538EB4AEA51E40E94D7
S1130A4025086DA77EA78FA798AB23E333E343E57F
S1130A5050E40E94BA0918167CF52BE734E146E805
S1130A6050E46DA57EA58FA598A90E9491088823BE
S1130A701CF58BEB90E00E94350180EC0E94C600CF
S1130A808E010F5F1F4F25E048E06DA57EA58FA561
S1130A9098A90E94540AC8010E943501BFEFE1EEF3
S1130AA0F4E0B150E040F040E1F700C000000E94E3
S1130AB0440101E010E018C08BEB90E00E94350186
S1130AC080EC0E94C6008DE691E00E9435012FEF74
S1130AD081EE94E0215080409040E1F700C0000096
S1130AE00E94440100E010E0A1E0CA16D10409F01C
S1130AF05CC083E00E945601BC01990F880B990BDE
S1130B000E940A0920E030E048E452E40E94BA0955
S1130B1018160CF45FC289EC90E00E94350180EC59
S1130B200E94C6008CED90E00E943501BFEFE1EE1B
S1130B30F4E0B150E040F040E1F700C000000E9452
S1130B40440148C283EE90E00E94350180EC0E948B
S1130B50C6008CED90E00E9435012FEF81EE94E009
S1130B60215080409040E1F700C000000E94440101
S1130B7043C285EF90E00E94350180EC0E94C600DC
S1130B808CED90E00E943501AFEFB1EEE4E0A150AE
S1130B90B040E040E1F700C000000E94440180B38F
S1130BA00130110509F0BFC191C180B301301105B5
S1130BB009F0B9C18BC1882309F471C1CA94CD2845
S1130BC009F061C0AC9A20E030E0A90169A57AA5DA
S1130BD08BA59CA50E94BA0988230CF452C0C12C91
S1130BE0D12C76010E9427020197E1F720E030E042
S1130BF040E85FE3609182017091830180918401F8
S1130C00909185010E94250860938201709383016D
S1130C10809384019093850120E030E040E05FE31D
S1130C20A6E7B1E06D917D918D919C910E94BF09E1
S1130C3020E030E040EF50E40E94960820E030E0ED
S1130C4048E452E40E94BF0920E030E040E450E46C
S1130C500E9496089B01AC01C701B6010E942508B9
S1130C606B017C01E6E7F1E01082118212821382AB
S1130C7029A53AA54BA55CA50E94910818160CF06D
S1130C80B1CF85B385BB6A94672809F065C0AD9A76
S1130C9020E030E0A90169A57AA58BA59CA50E9456
S1130CA0BA0988230CF456C0C12CD12C76010E94B9
S1130CB027020197E1F720E030E040E85FE360912C
S1130CC082017091830180918401909185010E9439
S1130CD0250860938201709383018093840190932B
S1130CE0850120E030E040E05FE360917A0170919B
S1130CF07B0180917C0190917D010E94BF0920E0DD
S1130D0030E040EF50E40E94960820E030E048E4F0
S1130D1052E40E94BF0920E030E040E450E40E9425
S1130D2096089B01AC01C701B6010E9425086B011E
S1130D307C0110927A0110927B0110927C01109236
S1130D407D0129A53AA54BA55CA50E94910818161A
S1130D500CF0ADCF85B385BB4A94452809F065C135
S1130D60AE9A20E030E0A90169A57AA58BA59CA5DF
S1130D700E94BA0988230CF456C0C12CD12C7601E8
S1130D800E9427020197E1F720E030E040E85FE3AA
S1130D906091820170918301809184019091850119
S1130DA00E942508609382017093830180938401DB
S1130DB09093850120E030E040E05FE360917E01A4
S1130DC070917F0180918001909181010E94BF09FF
S1130DD020E030E040EF50E40E94960820E030E04C
S1130DE048E452E40E94BF0920E030E040E450E4CB
S1130DF00E9496089B01AC01C701B6010E94250818
S1130E006B017C0110927E0110927F01109280018F
S1130E101092810129A53AA54BA55CA50E949108D1
S1130E2018160CF0ADCF85B385BB89A99AA9019793
S1130E3009F040CBA1E4B0E0BBBDAABDBFEFEBE736
S1130E40F2E9B150E040F040E1F700C000008FEA61
S1130E5090E09BBD8ABD9FEFADE3B9E49150A04003
S1130E60B040E1F700C00000E1E4F0E0FBBDEABD02
S1130E70FFEF2BE782E9F15020408040E1F700C00A
S1130E800000AFEAB0E0BBBDAABDBFEFEDE3F9E4FB
S1130E90B150E040F040E1F700C000000BCB89E026
S1130EA091E00E94350180EC0E94C6008AE191E045
S1130EB00E9435012FEF81EE94E021508040904054
S1130EC0E1F700C000000E944401F4CA8AE291E004
S1130ED00E94350180EC0E94C6008CE391E00E94E0
S1130EE03501AFEFB1EEE4E0A150B040E040E1F7EE
S1130EF000C000000E94440184E491E00E94350196
S1130F0080EC0E94C6008BE491E00E943501FFEF63
S1130F1021EE84E0F15020408040E1F700C0000061
S1130F200E944401C7CA8AE591E00E94350180EC21
S1130F300E94C60089E691E00E9435019FEFA1EE70
S1130F40B4E09150A040B040E1F700C000000E941E
S1130F50440184E491E00E94350180EC0E94C600C3
S1130F608BE491E00E943501EFEFF1EE24E0E150D3
S1130F70F0402040E1F700C000000E9444019ACAFA
S1130F8084EF91E0B8010E942C0A072E000C880B14
S1130F90990B0E940A0969A77AA78BA79CA70E94AC
S1130FA0510181E0C816D10409F013CC51CB91E072
S1130FB099AB1AAA00E010E0A1E06A16710409F0E6
S1130FC0CDCC0ECCB1E04B16510409F4CDCC00E0ED
S1130FD010E0EBCD83E00E945601BC01990F880B11
S1130FE0990B0E940A0920E030E048E452E40E9490
S1130FF0BA0918160CF0A6CD83E00E945601BC0174
S1131000990F880B990B0E940A0920E030E048E40C
S113101052E40E94BA0918160CF0ABCD80B3807468
S11310200130110509F07FCFC6CDE9A9FAA931979E
S113103009F040CAFFCE0E5F1F4F25CB0E5F1F4F36
S1131040E8CB0E5F1F4FABCC5058BB27AA270E949A
S11310503C080C9480090E94720938F00E947909B6
S113106020F039F49F3F19F426F40C946F090EF420
S1131070E095E7FB0C946909E92F0E94910958F364
S1131080BA17620773078407950720F079F4A6F569
S11310900C94B3090EF4E0950B2EBA2FA02D0B017E
S11310A0B90190010C01CA01A0011124FF27591BA9
S11310B099F0593F50F4503E68F11A16F040A22FAF
S11310C0232F342F4427585FF3CF46953795279520
S11310D0A795F0405395C9F77EF41F16BA0B620B1F
S11310E0730B840BBAF09150A1F0FF0FBB1F661F66
S11310F0771F881FC2F70EC0BA0F621F731F841FA9
S113110048F4879577956795B795F7959E3F08F0CE
S1131110B0CF9395880F08F09927EE0F9795879590
S113112008950E94450908F481E008950E94AA08E0
S11311300C9480090E94790958F00E94720940F0C9
S113114029F45F3F29F00C94690951110C94B409F6
S11311500C946F090E94910968F39923B1F3552304
S113116091F3951B550BBB27AA27621773078407B6
S113117038F09F5F5F4F220F331F441FAA1FA9F34C
S113118035D00E2E3AF0E0E832D091505040E6953A
S1131190001CCAF72BD0FE2F29D0660F771F881F9B
S11311A0BB1F261737074807AB07B0E809F0BB0B8E
S11311B0802DBF01FF2793585F4F3AF09E3F5105A2
S11311C078F00C9469090C94B4095F3FE4F3983EF9
S11311D0D4F3869577956795B795F7959F5FC9F78B
S11311E0880F911D9695879597F90895E1E0660F0C
S11311F0771F881FBB1F621773078407BA0720F085
S1131200621B730B840BBA0BEE1F88F7E0950895ED
S1131210E89409C097FB3EF490958095709561958C
S11312207F4F8F4F9F4F9923A9F0F92F96E9BB2742
S11312309395F695879577956795B795F111F8CFBE
S1131240FAF4BB0F11F460FF1BC06F5F7F4F8F4F29
S11312509F4F16C0882311F096E911C0772321F01F
S11312609EE8872F762F05C0662371F096E8862FB7
S113127070E060E02AF09A95660F771F881FDAF70E
S1131280880F9695879597F90895990F0008550F3B
S1131290AA0BE0E8FEEF16161706E807F907C0F0F8
S11312A012161306E407F50798F0621B730B840B00
S11312B0950B39F40A2661F0232B242B252B21F4DA
S11312C008950A2609F4A140A6958FEF811D811D7A
S11312D0089597F99F6780E870E060E008959FEFB4
S11312E080EC089500240A941616170618060906B9
S11312F0089500240A941216130614060506089588
S1131300092E0394000C11F4882352F0BB0F40F40F
S1131310BF2B11F460FF04C06F5F7F4F8F4F9F4F4F
S1131320089557FD9058440F551F59F05F3F71F0D1
S11313304795880F97FB991F61F09F3F79F0879538
S11313400895121613061406551FF2CF4695F1DFC1
S113135008C0161617061806991FF1CF8695710551
S1131360610508940895E894BB2766277727CB0185
S113137097F908950E94450908F48FEF08950E9493
S1131380D2090C9480090E94720938F00E947909EC
S113139020F0952311F00C9469090C946F09112421
S11313A00C94B4090E94910970F3959FC1F3950FB1
S11313B050E0551F629FF001729FBB27F00DB11DD5
S11313C0639FAA27F00DB11DAA1F649F6627B00D65
S11313D0A11D661F829F2227B00DA11D621F739F4E
S11313E0B00DA11D621F839FA00D611D221F749F5C
S11313F03327A00D611D231F849F600D211D822FA3
S1131400762F6A2F11249F5750409AF0F1F08823C9
S11314104AF0EE0FFF1FBB1F661F771F881F9150F6
S11314205040A9F79E3F510580F00C9469090C9433
S1131430B4095F3FE4F3983ED4F3869577956795B6
S1131440B795F795E7959F5FC1F7FE2B880F911D20
S11314509695879597F9089597FB072E16F40094AF
S113146007D077FD09D00E94400A07FC05D03EF45E
S1131470909581959F4F0895709561957F4F08953C
S1131480AA1BBB1B51E107C0AA1FBB1FA617B707A6
S113149010F0A61BB70B881F991F5A95A9F78095C2
S11314A09095BC01CD010895EF920F931F93CF93B4
S11314B0DF93E80147FD02C034E001C034E1042EAB
S11314C0000C550B57FF03C0519541955109E32E6C
S11314D0022F242FAE010E94740ACE01DF91CF9116
S11314E01F910F91EF900895A9E0B0E0EAE7FAE0C8
S11314F00C94AC0C6A01122FB02E2BE3201720F0B1
S1131500FF24F394F00E02C02CE3F22E0F2D27E0FB
S1131510AE014F5F5F4F0E94CE0BBC014981842F07
S11315208970813031F0E1FC06C0E0FE06C090E233
S113153005C09DE203C09BE201C090E05E2D5071A6
S113154043FF3CC0911102C083E001C084E08117D5
S113155018F4212F281B01C020E051110BC0F60103
S1131560822F30E2882319F031938150FBCFC20ED1
S1131570D11C20E0992329F0D6019C93F6013196E1
S11315806F01C6010396E2FE0AC03EE4D6013C9315
S113159041E411964C93119712963C9306C03EE693
S11315A0F601308341E641833283FC01322F40E26D
S11315B0332309F442C041933150FACF42FF44C06F
S11315C0911102C083E001C084E0811718F4212F37
S11315D0281B01C020E051110BC0F601822F30E21C
S11315E0882319F031938150FBCFC20ED11C20E027
S11315F0992329F0D6019C93F60131966F01C60117
S11316000396E2FE0BC039E4D6013C933EE4119606
S11316103C93119736E412963C9307C039E6F601E1
S113162030833EE6318336E63283FC01322F40E2DA
S1131630332319F041933150FBCFFC01E20FF11D2C
S113164010828EEF9FEFA6C021E030E0911102C01E
S113165020E030E0161617061CF4FB01319602C098
S1131660E1E0F0E02E0F3F1FBB2021F0EB2DF0E076
S1131670319602C0E0E0F0E02E0F3F1FE12FF0E0D2
S11316802E173F071CF4121B212F01C020E08E2DC2
S1131690887159F4F601822F30E2882319F03193CE
S11316A08150FBCFC20ED11C20E0992329F0D60132
S11316B09C93F60131966F0151110BC0F601822FF4
S11316C090E3882319F091938150FBCFC20ED11C73
S11316D020E00F2D060F9A81342F307144FF03C090
S11316E0913309F40150101624F4093018F008E07D
S11316F001C001E0AB0177FF02C040E050E0FB0114
S1131700E41BF50BA1E0B0E0AC0FBD1FEA0FFB1F1B
S11317108EE2A82E4B01801A91080B2D10E0119532
S1131720019511094F3FBFEF5B0721F4D601AC923D
S113173011966D01641775072CF08416950614F440
S1131740818101C080E3415051093196D60111963F
S11317507D014017510724F0D6018C936701E2CF35
S11317606417750739F4963320F4953319F431115D
S113177001C081E3F6018083F701822F90E2882380
S113178019F091938150FBCFF701E20FF11D108204
S113179080E090E02996ECE00C94C80C283008F026
S11317A027E03327DA01990F311D87FD91600096F8
S11317B06105710539F432602E5F3D9330E32A955B
S11317C0E1F708959F3F30F080387105610509F015
S11317D03C5F3C5F3D93913008F08068911DDF933E
S11317E0CF931F930F93FF92EF92192F987F9695A3
S11317F0E92F96959695E90FFF27E255FF4F992714
S11318003327EE24FF24A701E701059008940794E9
S113181028F4360FE71EF81E491F511D660F771F67
S1131820881F991F0694A1F70590079428F4E70EE2
S1131830F81E491F561FC11D770F881F991F661F69
S11318400694A1F70590079428F4F80E491F561F33
S1131850C71FD11D880F991F661F771F0694A1F714
S11318600590079420F4490F561FC71FD81F990FDE
S1131870661F771F881F0694A9F784911095177027
S113188041F0D695C79557954795F794E7941A95DF
S1131890C1F7E4E5F0E068941590159135916591F0
S11318A0959105907FE27395E118F10A430B560B6D
S11318B0C90BD009C0F7E10CF11E431F561FC91F05
S11318C0D01D7EF4703311F48A95E6CFE89401506C
S11318D030F0080F0AF40027021708F4202F23958C
S11318E0022F7A3328F079E37D932A95E9F710C023
S11318F07D932A9589F6069497956795379517955C
S11319001794E118F10A430B560BC90BD00998F050
S113191023957E9173957A3308F070E37C932013BA
S1131920B8F77E9170617D9330F0839571E37D9378
S113193070E32A95E1F71124EF90FF900F911F9126
S1131940CF91DF91992787FD909508952F923F922B
S11319504F925F926F927F928F929F92AF92BF92BB
S1131960CF92DF92EF92FF920F931F93CF93DF9367
S1131970CDB7DEB7CA1BDB0B0FB6F894DEBF0FBEC4
S1131980CDBF09942A88398848885F846E847D8411
S11319908C849B84AA84B984C884DF80EE80FD8013
S11319A00C811B81AA81B981CE0FD11D0FB6F89489
S11119B0DEBF0FBECDBFED010895F894FFCF4A
S11319BE57656C636F6D6520746F004A7569636556
S11319CE20427564647900506C65617365204368C8
S11319DE6F6F736500596F7572204A756963650080
S11319EE6170706C65006C696D65006F72616E6715
S11319FE65004170706C6520504820697320004C5E
S1131A0E696D6520504820697320004F72616E67BE
S1131A1E6520504820697320004170706C652077F2
S1131A2E61746572206C6576656C20006973206C38
S1131A3E6F77004C696D65207761746572206C65F3
S1131A4E76656C20004F72616E67652077617465F0
S1131A5E72206C6576656C2000506C656173652030
S1131A6E707574206120637570006F6E20746865E4
S1131A7E20706F736974696F6E00536F6D65204AC1
S1131A8E75696365204C6576656C2000617265200E
S1131A9E6C6F7700536F72727920007761697420CE
S1131AAE736F6D652074696D6500536F6D6520509D
S1131ABE68204C6576656C2000617265206E6F74CB
S1091ACE20676F6F640045
S9030000FC
