S01B0000576174657220436F6E74726F6C2056616C75652E73726563E8
S11300000C942A000C9434000C9434000C943400A6
S11300100C9434000C9434000C9434000C9434008C
S11300200C9434000C9434000C9434000C9434007C
S11300300C9434000C9434000C9434000C9434006C
S11300400C9434000C9434000C9434000C9434005C
S11300500C94340011241FBECFE5D8E0DEBFCDBF21
S11300600E9436000C946A000C94000080E784BB64
S113007080E090E08233910561F4AC9A2FEF39E689
S113008048E1215030404040E1F700C00000AC9806
S11300901FC08436910561F4AD9A2FEF39E648E12B
S11300A0215030404040E1F700C00000AD9810C03E
S11300B08639910569F4AE9A8FEF99E628E181506B
S11300C090402040E1F700C00000AE9880E090E04E
S10B00D00196D0CFF894FFCF94
S9030000FC
