:100000000C942A000C9434000C9434000C943400AA
:100010000C9434000C9434000C9434000C94340090
:100020000C9434000C9434000C9434000C94340080
:100030000C9434000C9434000C9434000C94340070
:100040000C9434000C9434000C9434000C94340060
:100050000C94340011241FBECFE5D8E0DEBFCDBF25
:100060000E944F000C9478000C9400001ABA87E8A4
:1000700086B980E487B9089597B18F70982B97B9A6
:10008000369A349BFECF8AE18A95F1F700C024B1FD
:1000900085B190E0982F8827820F911D08958FEFEA
:1000A00081BB0E94360001E010E0C3E0D0E08C2F5D
:1000B0000E943C00C3975CF022B3C8010C2E02C022
:1000C000880F991F0A94E2F7822B82BB0CC092B36F
:1000D00098010C2E02C0220F331F0A94E2F7822FE0
:1000E0008095892382BB2196C630D10501F7DDCFEB
:0400F000F894FFCFB2
:00000001FF
